{
  "address": "0x786A13ee2d92ab39552ED5588abbA27eFCF5Dd52",
  "abi": [
    {
      "inputs": [
        {
          "internalType": "address",
          "name": "_lzEndpoint",
          "type": "address"
        },
        {
          "internalType": "contract IERC20",
          "name": "_token",
          "type": "address"
        },
        {
          "internalType": "contract IStargateRouter",
          "name": "_stargateRouter",
          "type": "address"
        }
      ],
      "stateMutability": "nonpayable",
      "type": "constructor"
    },
    {
      "anonymous": false,
      "inputs": [
        {
          "indexed": false,
          "internalType": "uint16",
          "name": "_srcChainId",
          "type": "uint16"
        },
        {
          "indexed": false,
          "internalType": "bytes",
          "name": "_srcAddress",
          "type": "bytes"
        },
        {
          "indexed": false,
          "internalType": "uint64",
          "name": "_nonce",
          "type": "uint64"
        },
        {
          "indexed": false,
          "internalType": "bytes",
          "name": "_payload",
          "type": "bytes"
        },
        {
          "indexed": false,
          "internalType": "bytes",
          "name": "_reason",
          "type": "bytes"
        }
      ],
      "name": "MessageFailed",
      "type": "event"
    },
    {
      "anonymous": false,
      "inputs": [
        {
          "indexed": true,
          "internalType": "address",
          "name": "previousOwner",
          "type": "address"
        },
        {
          "indexed": true,
          "internalType": "address",
          "name": "newOwner",
          "type": "address"
        }
      ],
      "name": "OwnershipTransferred",
      "type": "event"
    },
    {
      "anonymous": false,
      "inputs": [
        {
          "indexed": false,
          "internalType": "uint16",
          "name": "_srcChainId",
          "type": "uint16"
        },
        {
          "indexed": false,
          "internalType": "bytes",
          "name": "_srcAddress",
          "type": "bytes"
        },
        {
          "indexed": false,
          "internalType": "uint64",
          "name": "_nonce",
          "type": "uint64"
        },
        {
          "indexed": false,
          "internalType": "bytes32",
          "name": "_payloadHash",
          "type": "bytes32"
        }
      ],
      "name": "RetryMessageSuccess",
      "type": "event"
    },
    {
      "anonymous": false,
      "inputs": [
        {
          "indexed": false,
          "internalType": "uint16",
          "name": "_dstChainId",
          "type": "uint16"
        },
        {
          "indexed": false,
          "internalType": "uint16",
          "name": "_type",
          "type": "uint16"
        },
        {
          "indexed": false,
          "internalType": "uint256",
          "name": "_minDstGas",
          "type": "uint256"
        }
      ],
      "name": "SetMinDstGas",
      "type": "event"
    },
    {
      "anonymous": false,
      "inputs": [
        {
          "indexed": false,
          "internalType": "address",
          "name": "precrime",
          "type": "address"
        }
      ],
      "name": "SetPrecrime",
      "type": "event"
    },
    {
      "anonymous": false,
      "inputs": [
        {
          "indexed": false,
          "internalType": "uint16",
          "name": "_remoteChainId",
          "type": "uint16"
        },
        {
          "indexed": false,
          "internalType": "bytes",
          "name": "_path",
          "type": "bytes"
        }
      ],
      "name": "SetTrustedRemote",
      "type": "event"
    },
    {
      "anonymous": false,
      "inputs": [
        {
          "indexed": false,
          "internalType": "uint16",
          "name": "_remoteChainId",
          "type": "uint16"
        },
        {
          "indexed": false,
          "internalType": "bytes",
          "name": "_remoteAddress",
          "type": "bytes"
        }
      ],
      "name": "SetTrustedRemoteAddress",
      "type": "event"
    },
    {
      "inputs": [],
      "name": "PERMIT2_ADDRESS",
      "outputs": [
        {
          "internalType": "address",
          "name": "",
          "type": "address"
        }
      ],
      "stateMutability": "view",
      "type": "function"
    },
    {
      "inputs": [],
      "name": "POOL_ID",
      "outputs": [
        {
          "internalType": "uint256",
          "name": "",
          "type": "uint256"
        }
      ],
      "stateMutability": "view",
      "type": "function"
    },
    {
      "inputs": [],
      "name": "STARGATE_ROUTER",
      "outputs": [
        {
          "internalType": "contract IStargateRouter",
          "name": "",
          "type": "address"
        }
      ],
      "stateMutability": "view",
      "type": "function"
    },
    {
      "inputs": [],
      "name": "TOKEN",
      "outputs": [
        {
          "internalType": "contract IERC20",
          "name": "",
          "type": "address"
        }
      ],
      "stateMutability": "view",
      "type": "function"
    },
    {
      "inputs": [
        {
          "internalType": "uint16[]",
          "name": "_dstChainIds",
          "type": "uint16[]"
        },
        {
          "internalType": "uint256[]",
          "name": "_amounts",
          "type": "uint256[]"
        },
        {
          "internalType": "uint256[]",
          "name": "_permitNonces",
          "type": "uint256[]"
        },
        {
          "internalType": "uint256[]",
          "name": "_deadlines",
          "type": "uint256[]"
        },
        {
          "internalType": "bytes[]",
          "name": "signatures",
          "type": "bytes[]"
        }
      ],
      "name": "aggregate",
      "outputs": [],
      "stateMutability": "payable",
      "type": "function"
    },
    {
      "inputs": [
        {
          "internalType": "uint16",
          "name": "",
          "type": "uint16"
        },
        {
          "internalType": "bytes",
          "name": "",
          "type": "bytes"
        },
        {
          "internalType": "uint64",
          "name": "",
          "type": "uint64"
        }
      ],
      "name": "failedMessages",
      "outputs": [
        {
          "internalType": "bytes32",
          "name": "",
          "type": "bytes32"
        }
      ],
      "stateMutability": "view",
      "type": "function"
    },
    {
      "inputs": [
        {
          "internalType": "uint16",
          "name": "_srcChainId",
          "type": "uint16"
        },
        {
          "internalType": "bytes",
          "name": "_srcAddress",
          "type": "bytes"
        }
      ],
      "name": "forceResumeReceive",
      "outputs": [],
      "stateMutability": "nonpayable",
      "type": "function"
    },
    {
      "inputs": [
        {
          "internalType": "uint16",
          "name": "_version",
          "type": "uint16"
        },
        {
          "internalType": "uint16",
          "name": "_chainId",
          "type": "uint16"
        },
        {
          "internalType": "address",
          "name": "",
          "type": "address"
        },
        {
          "internalType": "uint256",
          "name": "_configType",
          "type": "uint256"
        }
      ],
      "name": "getConfig",
      "outputs": [
        {
          "internalType": "bytes",
          "name": "",
          "type": "bytes"
        }
      ],
      "stateMutability": "view",
      "type": "function"
    },
    {
      "inputs": [
        {
          "internalType": "uint16",
          "name": "_remoteChainId",
          "type": "uint16"
        }
      ],
      "name": "getTrustedRemoteAddress",
      "outputs": [
        {
          "internalType": "bytes",
          "name": "",
          "type": "bytes"
        }
      ],
      "stateMutability": "view",
      "type": "function"
    },
    {
      "inputs": [
        {
          "internalType": "uint16",
          "name": "_srcChainId",
          "type": "uint16"
        },
        {
          "internalType": "bytes",
          "name": "_srcAddress",
          "type": "bytes"
        }
      ],
      "name": "isTrustedRemote",
      "outputs": [
        {
          "internalType": "bool",
          "name": "",
          "type": "bool"
        }
      ],
      "stateMutability": "view",
      "type": "function"
    },
    {
      "inputs": [],
      "name": "lzEndpoint",
      "outputs": [
        {
          "internalType": "contract ILayerZeroEndpoint",
          "name": "",
          "type": "address"
        }
      ],
      "stateMutability": "view",
      "type": "function"
    },
    {
      "inputs": [
        {
          "internalType": "uint16",
          "name": "_srcChainId",
          "type": "uint16"
        },
        {
          "internalType": "bytes",
          "name": "_srcAddress",
          "type": "bytes"
        },
        {
          "internalType": "uint64",
          "name": "_nonce",
          "type": "uint64"
        },
        {
          "internalType": "bytes",
          "name": "_payload",
          "type": "bytes"
        }
      ],
      "name": "lzReceive",
      "outputs": [],
      "stateMutability": "nonpayable",
      "type": "function"
    },
    {
      "inputs": [
        {
          "internalType": "uint16",
          "name": "",
          "type": "uint16"
        },
        {
          "internalType": "uint16",
          "name": "",
          "type": "uint16"
        }
      ],
      "name": "minDstGasLookup",
      "outputs": [
        {
          "internalType": "uint256",
          "name": "",
          "type": "uint256"
        }
      ],
      "stateMutability": "view",
      "type": "function"
    },
    {
      "inputs": [
        {
          "internalType": "uint16",
          "name": "_srcChainId",
          "type": "uint16"
        },
        {
          "internalType": "bytes",
          "name": "_srcAddress",
          "type": "bytes"
        },
        {
          "internalType": "uint64",
          "name": "_nonce",
          "type": "uint64"
        },
        {
          "internalType": "bytes",
          "name": "_payload",
          "type": "bytes"
        }
      ],
      "name": "nonblockingLzReceive",
      "outputs": [],
      "stateMutability": "nonpayable",
      "type": "function"
    },
    {
      "inputs": [],
      "name": "owner",
      "outputs": [
        {
          "internalType": "address",
          "name": "",
          "type": "address"
        }
      ],
      "stateMutability": "view",
      "type": "function"
    },
    {
      "inputs": [],
      "name": "precrime",
      "outputs": [
        {
          "internalType": "address",
          "name": "",
          "type": "address"
        }
      ],
      "stateMutability": "view",
      "type": "function"
    },
    {
      "inputs": [],
      "name": "renounceOwnership",
      "outputs": [],
      "stateMutability": "nonpayable",
      "type": "function"
    },
    {
      "inputs": [
        {
          "internalType": "uint16",
          "name": "_srcChainId",
          "type": "uint16"
        },
        {
          "internalType": "bytes",
          "name": "_srcAddress",
          "type": "bytes"
        },
        {
          "internalType": "uint64",
          "name": "_nonce",
          "type": "uint64"
        },
        {
          "internalType": "bytes",
          "name": "_payload",
          "type": "bytes"
        }
      ],
      "name": "retryMessage",
      "outputs": [],
      "stateMutability": "payable",
      "type": "function"
    },
    {
      "inputs": [
        {
          "internalType": "uint16",
          "name": "_version",
          "type": "uint16"
        },
        {
          "internalType": "uint16",
          "name": "_chainId",
          "type": "uint16"
        },
        {
          "internalType": "uint256",
          "name": "_configType",
          "type": "uint256"
        },
        {
          "internalType": "bytes",
          "name": "_config",
          "type": "bytes"
        }
      ],
      "name": "setConfig",
      "outputs": [],
      "stateMutability": "nonpayable",
      "type": "function"
    },
    {
      "inputs": [
        {
          "internalType": "uint16",
          "name": "_dstChainId",
          "type": "uint16"
        },
        {
          "internalType": "uint16",
          "name": "_packetType",
          "type": "uint16"
        },
        {
          "internalType": "uint256",
          "name": "_minGas",
          "type": "uint256"
        }
      ],
      "name": "setMinDstGas",
      "outputs": [],
      "stateMutability": "nonpayable",
      "type": "function"
    },
    {
      "inputs": [
        {
          "internalType": "address",
          "name": "_precrime",
          "type": "address"
        }
      ],
      "name": "setPrecrime",
      "outputs": [],
      "stateMutability": "nonpayable",
      "type": "function"
    },
    {
      "inputs": [
        {
          "internalType": "uint16",
          "name": "_version",
          "type": "uint16"
        }
      ],
      "name": "setReceiveVersion",
      "outputs": [],
      "stateMutability": "nonpayable",
      "type": "function"
    },
    {
      "inputs": [
        {
          "internalType": "uint16",
          "name": "_version",
          "type": "uint16"
        }
      ],
      "name": "setSendVersion",
      "outputs": [],
      "stateMutability": "nonpayable",
      "type": "function"
    },
    {
      "inputs": [
        {
          "internalType": "uint16",
          "name": "_srcChainId",
          "type": "uint16"
        },
        {
          "internalType": "bytes",
          "name": "_path",
          "type": "bytes"
        }
      ],
      "name": "setTrustedRemote",
      "outputs": [],
      "stateMutability": "nonpayable",
      "type": "function"
    },
    {
      "inputs": [
        {
          "internalType": "uint16",
          "name": "_remoteChainId",
          "type": "uint16"
        },
        {
          "internalType": "bytes",
          "name": "_remoteAddress",
          "type": "bytes"
        }
      ],
      "name": "setTrustedRemoteAddress",
      "outputs": [],
      "stateMutability": "nonpayable",
      "type": "function"
    },
    {
      "inputs": [
        {
          "internalType": "address",
          "name": "newOwner",
          "type": "address"
        }
      ],
      "name": "transferOwnership",
      "outputs": [],
      "stateMutability": "nonpayable",
      "type": "function"
    },
    {
      "inputs": [
        {
          "internalType": "uint16",
          "name": "",
          "type": "uint16"
        }
      ],
      "name": "trustedRemoteLookup",
      "outputs": [
        {
          "internalType": "bytes",
          "name": "",
          "type": "bytes"
        }
      ],
      "stateMutability": "view",
      "type": "function"
    }
  ],
  "transactionHash": "0xa55cca5f098592ac0fab3d655e9fbe3c335ca855c8d0c6119ce6a2e4ed101723",
  "args": [
    "0x93f54D755A063cE7bB9e6Ac47Eccc8e33411d706",
    "0x4A0D1092E9df255cf95D72834Ea9255132782318",
    "0x13093E05Eb890dfA6DacecBdE51d24DabAb2Faa1"
  ],
  "numDeployments": 2,
  "solcInputHash": "cdda1d1e7006174bc9ef7293b2999d30",
  "bytecode": "0x60e06040523480156200001157600080fd5b506040516200294b3803806200294b8339810160408190526200003491620000ca565b8280620000413362000061565b6001600160a01b0390811660805292831660a052501660c052506200011e565b600080546001600160a01b038381166001600160a01b0319831681178455604051919092169283917f8be0079c531659141344cd1fd0a4f28419497f9722a3daafe3b4186f6b6457e09190a35050565b6001600160a01b0381168114620000c757600080fd5b50565b600080600060608486031215620000e057600080fd5b8351620000ed81620000b1565b60208501519093506200010081620000b1565b60408501519092506200011381620000b1565b809150509250925092565b60805160a05160c0516127b7620001946000396000818161027c015281816117a70152611a820152600081816103870152611759015260008181610471015281816105a1015281816107f0015281816108790152818161099b01528181610f60015281816113a201526116a401526127b76000f3fe60806040526004361061019b5760003560e01c80638da5cb5b116100ec578063d1deba1f1161008a578063e5777b7711610064578063e5777b771461051b578063eb8d72b71461053e578063f2fde38b1461055e578063f5ecbdbc1461057e57600080fd5b8063d1deba1f146104d3578063df2a5b3b146104e6578063e0d7d0e91461050657600080fd5b8063a6c3d165116100c6578063a6c3d1651461043f578063b353aaa71461045f578063baf3292d14610493578063cbed8b9c146104b357600080fd5b80638da5cb5b146103e1578063950c8a74146103ff5780639f38369a1461041f57600080fd5b80634b184eeb11610159578063715018a611610133578063715018a6146103335780637533d7881461034857806382bfefc8146103755780638cfd8f5c146103a957600080fd5b80634b184eeb1461026a5780635b8c41e6146102b657806366ad5c8a1461031357600080fd5b80621d3567146101a057806307e0db17146101c257806310ddb137146101e25780633d8b38f61461020257806342d65a8d14610237578063481e910014610257575b600080fd5b3480156101ac57600080fd5b506101c06101bb366004611b55565b61059e565b005b3480156101ce57600080fd5b506101c06101dd366004611be8565b6107cf565b3480156101ee57600080fd5b506101c06101fd366004611be8565b610858565b34801561020e57600080fd5b5061022261021d366004611c03565b6108b0565b60405190151581526020015b60405180910390f35b34801561024357600080fd5b506101c0610252366004611c03565b61097c565b6101c0610265366004611c99565b610a02565b34801561027657600080fd5b5061029e7f000000000000000000000000000000000000000000000000000000000000000081565b6040516001600160a01b03909116815260200161022e565b3480156102c257600080fd5b506103056102d1366004611df6565b6004602090815260009384526040808520845180860184018051928152908401958401959095209452929052825290205481565b60405190815260200161022e565b34801561031f57600080fd5b506101c061032e366004611b55565b610bbc565b34801561033f57600080fd5b506101c0610c98565b34801561035457600080fd5b50610368610363366004611be8565b610cac565b60405161022e9190611ee6565b34801561038157600080fd5b5061029e7f000000000000000000000000000000000000000000000000000000000000000081565b3480156103b557600080fd5b506103056103c4366004611ef9565b600260209081526000928352604080842090915290825290205481565b3480156103ed57600080fd5b506000546001600160a01b031661029e565b34801561040b57600080fd5b5060035461029e906001600160a01b031681565b34801561042b57600080fd5b5061036861043a366004611be8565b610d46565b34801561044b57600080fd5b506101c061045a366004611c03565b610e5c565b34801561046b57600080fd5b5061029e7f000000000000000000000000000000000000000000000000000000000000000081565b34801561049f57600080fd5b506101c06104ae366004611f43565b610ee5565b3480156104bf57600080fd5b506101c06104ce366004611f5e565b610f41565b6101c06104e1366004611b55565b610fd6565b3480156104f257600080fd5b506101c0610501366004611fcc565b6111ec565b34801561051257600080fd5b50610305600181565b34801561052757600080fd5b5061029e6e22d473030f116ddee9f6b43ac78ba381565b34801561054a57600080fd5b506101c0610559366004611c03565b61129e565b34801561056a57600080fd5b506101c0610579366004611f43565b6112f8565b34801561058a57600080fd5b50610368610599366004612008565b611371565b337f00000000000000000000000000000000000000000000000000000000000000006001600160a01b03161461061b5760405162461bcd60e51b815260206004820152601e60248201527f4c7a4170703a20696e76616c696420656e64706f696e742063616c6c6572000060448201526064015b60405180910390fd5b61ffff86166000908152600160205260408120805461063990612053565b80601f016020809104026020016040519081016040528092919081815260200182805461066590612053565b80156106b25780601f10610687576101008083540402835291602001916106b2565b820191906000526020600020905b81548152906001019060200180831161069557829003601f168201915b505050505090508051868690501480156106cd575060008151115b80156106f55750805160208201206040516106eb908890889061208d565b6040518091039020145b6107505760405162461bcd60e51b815260206004820152602660248201527f4c7a4170703a20696e76616c696420736f757263652073656e64696e6720636f6044820152651b9d1c9858dd60d21b6064820152608401610612565b6107c68787878080601f01602080910402602001604051908101604052809392919081815260200183838082843760009201919091525050604080516020601f8a018190048102820181019092528881528a93509150889088908190840183828082843760009201919091525061142292505050565b50505050505050565b6107d761152c565b6040516307e0db1760e01b815261ffff821660048201527f00000000000000000000000000000000000000000000000000000000000000006001600160a01b0316906307e0db17906024015b600060405180830381600087803b15801561083d57600080fd5b505af1158015610851573d6000803e3d6000fd5b5050505050565b61086061152c565b6040516310ddb13760e01b815261ffff821660048201527f00000000000000000000000000000000000000000000000000000000000000006001600160a01b0316906310ddb13790602401610823565b61ffff8316600090815260016020526040812080548291906108d190612053565b80601f01602080910402602001604051908101604052809291908181526020018280546108fd90612053565b801561094a5780601f1061091f5761010080835404028352916020019161094a565b820191906000526020600020905b81548152906001019060200180831161092d57829003601f168201915b50505050509050838360405161096192919061208d565b60405180910390208180519060200120149150509392505050565b61098461152c565b6040516342d65a8d60e01b81526001600160a01b037f000000000000000000000000000000000000000000000000000000000000000016906342d65a8d906109d4908690869086906004016120c6565b600060405180830381600087803b1580156109ee57600080fd5b505af11580156107c6573d6000803e3d6000fd5b888781148015610a1157508086145b8015610a1c57508084145b8015610a2757508082145b610a655760405162461bcd60e51b815260206004820152600f60248201526e098cadccee8d040dad2e6dac2e8c6d608b1b6044820152606401610612565b6000610a7182346120fa565b905060005b82811015610bad57600060405180608001604052808d8d85818110610a9d57610a9d61211c565b9050602002013581526020018b8b85818110610abb57610abb61211c565b905060200201358152602001898985818110610ad957610ad961211c565b905060200201358152602001878785818110610af757610af761211c565b9050602002810190610b099190612132565b8080601f0160208091040260200160405190810160405280939291908181526020018383808284376000920191909152505050915250604051610b4f9190602001612178565b6040516020818303038152906040529050610ba48e8e84818110610b7557610b7561211c565b9050602002016020810190610b8a9190611be8565b823360006040518060200160405280600081525088611586565b50600101610a76565b50505050505050505050505050565b333014610c1a5760405162461bcd60e51b815260206004820152602660248201527f4e6f6e626c6f636b696e674c7a4170703a2063616c6c6572206d7573742062656044820152650204c7a4170760d41b6064820152608401610612565b610c908686868080601f01602080910402602001604051908101604052809392919081815260200183838082843760009201919091525050604080516020601f89018190048102820181019092528781528993509150879087908190840183828082843760009201919091525061172092505050565b505050505050565b610ca061152c565b610caa600061184b565b565b60016020526000908152604090208054610cc590612053565b80601f0160208091040260200160405190810160405280929190818152602001828054610cf190612053565b8015610d3e5780601f10610d1357610100808354040283529160200191610d3e565b820191906000526020600020905b815481529060010190602001808311610d2157829003601f168201915b505050505081565b61ffff8116600090815260016020526040812080546060929190610d6990612053565b80601f0160208091040260200160405190810160405280929190818152602001828054610d9590612053565b8015610de25780601f10610db757610100808354040283529160200191610de2565b820191906000526020600020905b815481529060010190602001808311610dc557829003601f168201915b505050505090508051600003610e3a5760405162461bcd60e51b815260206004820152601d60248201527f4c7a4170703a206e6f20747275737465642070617468207265636f72640000006044820152606401610612565b610e55600060148351610e4d91906121b9565b83919061189b565b9392505050565b610e6461152c565b818130604051602001610e79939291906121d2565b60408051601f1981840301815291815261ffff8516600090815260016020522090610ea49082612243565b507f8c0400cfe2d1199b1a725c78960bcc2a344d869b80590d0f2bd005db15a572ce838383604051610ed8939291906120c6565b60405180910390a1505050565b610eed61152c565b600380546001600160a01b0319166001600160a01b0383169081179091556040519081527f5db758e995a17ec1ad84bdef7e8c3293a0bd6179bcce400dff5d4c3d87db726b9060200160405180910390a150565b610f4961152c565b6040516332fb62e760e21b81526001600160a01b037f0000000000000000000000000000000000000000000000000000000000000000169063cbed8b9c90610f9d9088908890889088908890600401612302565b600060405180830381600087803b158015610fb757600080fd5b505af1158015610fcb573d6000803e3d6000fd5b505050505050505050565b61ffff86166000908152600460205260408082209051610ff9908890889061208d565b90815260408051602092819003830190206001600160401b038716600090815292529020549050806110795760405162461bcd60e51b815260206004820152602360248201527f4e6f6e626c6f636b696e674c7a4170703a206e6f2073746f726564206d65737360448201526261676560e81b6064820152608401610612565b80838360405161108a92919061208d565b6040518091039020146110e95760405162461bcd60e51b815260206004820152602160248201527f4e6f6e626c6f636b696e674c7a4170703a20696e76616c6964207061796c6f616044820152601960fa1b6064820152608401610612565b61ffff8716600090815260046020526040808220905161110c908990899061208d565b90815260408051602092819003830181206001600160401b038916600090815290845282902093909355601f880182900482028301820190528682526111a4918991899089908190840183828082843760009201919091525050604080516020601f8a018190048102820181019092528881528a93509150889088908190840183828082843760009201919091525061172092505050565b7fc264d91f3adc5588250e1551f547752ca0cfa8f6b530d243b9f9f4cab10ea8e587878787856040516111db95949392919061233b565b60405180910390a150505050505050565b6111f461152c565b6000811161123c5760405162461bcd60e51b81526020600482015260156024820152744c7a4170703a20696e76616c6964206d696e47617360581b6044820152606401610612565b61ffff83811660008181526002602090815260408083209487168084529482529182902085905581519283528201929092529081018290527f9d5c7c0b934da8fefa9c7760c98383778a12dfbfc0c3b3106518f43fb9508ac090606001610ed8565b6112a661152c565b61ffff831660009081526001602052604090206112c4828483612376565b507ffa41487ad5d6728f0b19276fa1eddc16558578f5109fc39d2dc33c3230470dab838383604051610ed8939291906120c6565b61130061152c565b6001600160a01b0381166113655760405162461bcd60e51b815260206004820152602660248201527f4f776e61626c653a206e6577206f776e657220697320746865207a65726f206160448201526564647265737360d01b6064820152608401610612565b61136e8161184b565b50565b604051633d7b2f6f60e21b815261ffff808616600483015284166024820152306044820152606481018290526060907f00000000000000000000000000000000000000000000000000000000000000006001600160a01b03169063f5ecbdbc90608401600060405180830381865afa1580156113f1573d6000803e3d6000fd5b505050506040513d6000823e601f3d908101601f19168201604052611419919081019061247a565b95945050505050565b6000806114855a60966366ad5c8a60e01b8989898960405160240161144a94939291906124ae565b60408051601f198184030181529190526020810180516001600160e01b03166001600160e01b031990931692909217909152309291906119a8565b9150915081610c90578280519060200120600460008861ffff1661ffff168152602001908152602001600020866040516114bf91906124ec565b9081526040805191829003602090810183206001600160401b0389166000908152915220919091557fe183f33de2837795525b4792ca4cd60535bd77c53b7e7030060bfcf5734d6b0c9061151c9088908890889088908790612508565b60405180910390a1505050505050565b6000546001600160a01b03163314610caa5760405162461bcd60e51b815260206004820181905260248201527f4f776e61626c653a2063616c6c6572206973206e6f7420746865206f776e65726044820152606401610612565b61ffff8616600090815260016020526040812080546115a490612053565b80601f01602080910402602001604051908101604052809291908181526020018280546115d090612053565b801561161d5780601f106115f25761010080835404028352916020019161161d565b820191906000526020600020905b81548152906001019060200180831161160057829003601f168201915b50505050509050805160000361168e5760405162461bcd60e51b815260206004820152603060248201527f4c7a4170703a2064657374696e6174696f6e20636861696e206973206e6f742060448201526f61207472757374656420736f7572636560801b6064820152608401610612565b60405162c5803160e81b81526001600160a01b037f0000000000000000000000000000000000000000000000000000000000000000169063c58031009084906116e5908b9086908c908c908c908c90600401612566565b6000604051808303818588803b1580156116fe57600080fd5b505af1158015611712573d6000803e3d6000fd5b505050505050505050505050565b60008180602001905181019061173691906125cd565b8051909150156108515760148401516040805160a0810182526001600160a01b037f00000000000000000000000000000000000000000000000000000000000000008116606080840191825286516080850152908352602080870151818501528685015184860152845180860186527f00000000000000000000000000000000000000000000000000000000000000009093168352865190830152850151925163187945bd60e11b81526e22d473030f116ddee9f6b43ac78ba3936330f28b7a936118099390929091879160040161266f565b600060405180830381600087803b15801561182357600080fd5b505af1158015611837573d6000803e3d6000fd5b50505050610c908686846000015184611a32565b600080546001600160a01b038381166001600160a01b0319831681178455604051919092169283917f8be0079c531659141344cd1fd0a4f28419497f9722a3daafe3b4186f6b6457e09190a35050565b6060816118a981601f6126d0565b10156118e85760405162461bcd60e51b815260206004820152600e60248201526d736c6963655f6f766572666c6f7760901b6044820152606401610612565b6118f282846126d0565b845110156119365760405162461bcd60e51b8152602060048201526011602482015270736c6963655f6f75744f66426f756e647360781b6044820152606401610612565b606082158015611955576040519150600082526020820160405261199f565b6040519150601f8416801560200281840101858101878315602002848b0101015b8183101561198e578051835260209283019201611976565b5050858452601f01601f1916604052505b50949350505050565b6000606060008060008661ffff166001600160401b038111156119cd576119cd611d89565b6040519080825280601f01601f1916602001820160405280156119f7576020820181803683370190505b50905060008087516020890160008d8df191503d925086831115611a19578692505b828152826000602083013e909890975095505050505050565b6040805160608101825260008082526020808301829052835180850185526002815261060f60f31b81830152838501528351908101845290815291516327efc43f60e21b81526001600160a01b037f00000000000000000000000000000000000000000000000000000000000000001692639fbf10fc923492611ac6928a9260019283928a928c9283928f916004016126e3565b6000604051808303818588803b158015610fb757600080fd5b803561ffff81168114611af157600080fd5b919050565b60008083601f840112611b0857600080fd5b5081356001600160401b03811115611b1f57600080fd5b602083019150836020828501011115611b3757600080fd5b9250929050565b80356001600160401b0381168114611af157600080fd5b60008060008060008060808789031215611b6e57600080fd5b611b7787611adf565b955060208701356001600160401b0380821115611b9357600080fd5b611b9f8a838b01611af6565b9097509550859150611bb360408a01611b3e565b94506060890135915080821115611bc957600080fd5b50611bd689828a01611af6565b979a9699509497509295939492505050565b600060208284031215611bfa57600080fd5b610e5582611adf565b600080600060408486031215611c1857600080fd5b611c2184611adf565b925060208401356001600160401b03811115611c3c57600080fd5b611c4886828701611af6565b9497909650939450505050565b60008083601f840112611c6757600080fd5b5081356001600160401b03811115611c7e57600080fd5b6020830191508360208260051b8501011115611b3757600080fd5b60008060008060008060008060008060a08b8d031215611cb857600080fd5b8a356001600160401b0380821115611ccf57600080fd5b611cdb8e838f01611c55565b909c509a5060208d0135915080821115611cf457600080fd5b611d008e838f01611c55565b909a50985060408d0135915080821115611d1957600080fd5b611d258e838f01611c55565b909850965060608d0135915080821115611d3e57600080fd5b611d4a8e838f01611c55565b909650945060808d0135915080821115611d6357600080fd5b50611d708d828e01611c55565b915080935050809150509295989b9194979a5092959850565b634e487b7160e01b600052604160045260246000fd5b604051601f8201601f191681016001600160401b0381118282101715611dc757611dc7611d89565b604052919050565b60006001600160401b03821115611de857611de8611d89565b50601f01601f191660200190565b600080600060608486031215611e0b57600080fd5b611e1484611adf565b925060208401356001600160401b03811115611e2f57600080fd5b8401601f81018613611e4057600080fd5b8035611e53611e4e82611dcf565b611d9f565b818152876020838501011115611e6857600080fd5b81602084016020830137600060208383010152809450505050611e8d60408501611b3e565b90509250925092565b60005b83811015611eb1578181015183820152602001611e99565b50506000910152565b60008151808452611ed2816020860160208601611e96565b601f01601f19169290920160200192915050565b602081526000610e556020830184611eba565b60008060408385031215611f0c57600080fd5b611f1583611adf565b9150611f2360208401611adf565b90509250929050565b80356001600160a01b0381168114611af157600080fd5b600060208284031215611f5557600080fd5b610e5582611f2c565b600080600080600060808688031215611f7657600080fd5b611f7f86611adf565b9450611f8d60208701611adf565b93506040860135925060608601356001600160401b03811115611faf57600080fd5b611fbb88828901611af6565b969995985093965092949392505050565b600080600060608486031215611fe157600080fd5b611fea84611adf565b9250611ff860208501611adf565b9150604084013590509250925092565b6000806000806080858703121561201e57600080fd5b61202785611adf565b935061203560208601611adf565b925061204360408601611f2c565b9396929550929360600135925050565b600181811c9082168061206757607f821691505b60208210810361208757634e487b7160e01b600052602260045260246000fd5b50919050565b8183823760009101908152919050565b81835281816020850137506000828201602090810191909152601f909101601f19169091010190565b61ffff8416815260406020820152600061141960408301848661209d565b634e487b7160e01b600052601160045260246000fd5b60008261211757634e487b7160e01b600052601260045260246000fd5b500490565b634e487b7160e01b600052603260045260246000fd5b6000808335601e1984360301811261214957600080fd5b8301803591506001600160401b0382111561216357600080fd5b602001915036819003821315611b3757600080fd5b60208152815160208201526020820151604082015260408201516060820152600060608301516080808401526121b160a0840182611eba565b949350505050565b818103818111156121cc576121cc6120e4565b92915050565b8284823760609190911b6bffffffffffffffffffffffff19169101908152601401919050565b601f82111561223e57600081815260208120601f850160051c8101602086101561221f5750805b601f850160051c820191505b81811015610c905782815560010161222b565b505050565b81516001600160401b0381111561225c5761225c611d89565b6122708161226a8454612053565b846121f8565b602080601f8311600181146122a5576000841561228d5750858301515b600019600386901b1c1916600185901b178555610c90565b600085815260208120601f198616915b828110156122d4578886015182559484019460019091019084016122b5565b50858210156122f25787850151600019600388901b60f8161c191681555b5050505050600190811b01905550565b600061ffff80881683528087166020840152508460408301526080606083015261233060808301848661209d565b979650505050505050565b61ffff8616815260806020820152600061235960808301868861209d565b6001600160401b0394909416604083015250606001529392505050565b6001600160401b0383111561238d5761238d611d89565b6123a18361239b8354612053565b836121f8565b6000601f8411600181146123d557600085156123bd5750838201355b600019600387901b1c1916600186901b178355610851565b600083815260209020601f19861690835b8281101561240657868501358255602094850194600190920191016123e6565b50868210156124235760001960f88860031b161c19848701351681555b505060018560011b0183555050505050565b600082601f83011261244657600080fd5b8151612454611e4e82611dcf565b81815284602083860101111561246957600080fd5b6121b1826020830160208701611e96565b60006020828403121561248c57600080fd5b81516001600160401b038111156124a257600080fd5b6121b184828501612435565b61ffff851681526080602082015260006124cb6080830186611eba565b6001600160401b038516604084015282810360608401526123308185611eba565b600082516124fe818460208701611e96565b9190910192915050565b61ffff8616815260a06020820152600061252560a0830187611eba565b6001600160401b038616604084015282810360608401526125468186611eba565b9050828103608084015261255a8185611eba565b98975050505050505050565b61ffff8716815260c06020820152600061258360c0830188611eba565b82810360408401526125958188611eba565b6001600160a01b0387811660608601528616608085015283810360a085015290506125c08185611eba565b9998505050505050505050565b6000602082840312156125df57600080fd5b81516001600160401b03808211156125f657600080fd5b908301906080828603121561260a57600080fd5b60405160808101818110838211171561262557612625611d89565b806040525082518152602083015160208201526040830151604082015260608301518281111561265457600080fd5b61266087828601612435565b60608301525095945050505050565b6000610100865160018060a01b03808251168552602082015160208601526020890151604086015260408901516060860152808851166080860152602088015160a086015280871660c086015250508060e084015261233081840185611eba565b808201808211156121cc576121cc6120e4565b600061012061ffff8c1683528a602084015289604084015260018060a01b03891660608401528760808401528660a08401528060c084015285518184015250602085015161014083015260408501516060610160840152612748610180840182611eba565b905082810360e084015261275c8186611eba565b90508281036101008401526127718185611eba565b9c9b50505050505050505050505056fea264697066735822122048d00c28db0bb3663d2865026c68424676fc21455d85a596356f077293938be164736f6c63430008110033",
  "devdoc": {
    "kind": "dev",
    "methods": {
      "owner()": {
        "details": "Returns the address of the current owner."
      },
      "renounceOwnership()": {
        "details": "Leaves the contract without owner. It will not be possible to call `onlyOwner` functions anymore. Can only be called by the current owner. NOTE: Renouncing ownership will leave the contract without an owner, thereby removing any functionality that is only available to the owner."
      },
      "transferOwnership(address)": {
        "details": "Transfers ownership of the contract to a new account (`newOwner`). Can only be called by the current owner."
      }
    },
    "version": 1
  },
  "userdoc": {
    "kind": "user",
    "methods": {},
    "version": 1
  },
  "storageLayout": {
    "storage": [
      {
        "astId": 7,
        "contract": "contracts/LiquidityAggregator.sol:LiquidityAggregator",
        "label": "_owner",
        "offset": 0,
        "slot": "0",
        "type": "t_address"
      },
      {
        "astId": 425,
        "contract": "contracts/LiquidityAggregator.sol:LiquidityAggregator",
        "label": "trustedRemoteLookup",
        "offset": 0,
        "slot": "1",
        "type": "t_mapping(t_uint16,t_bytes_storage)"
      },
      {
        "astId": 431,
        "contract": "contracts/LiquidityAggregator.sol:LiquidityAggregator",
        "label": "minDstGasLookup",
        "offset": 0,
        "slot": "2",
        "type": "t_mapping(t_uint16,t_mapping(t_uint16,t_uint256))"
      },
      {
        "astId": 433,
        "contract": "contracts/LiquidityAggregator.sol:LiquidityAggregator",
        "label": "precrime",
        "offset": 0,
        "slot": "3",
        "type": "t_address"
      },
      {
        "astId": 918,
        "contract": "contracts/LiquidityAggregator.sol:LiquidityAggregator",
        "label": "failedMessages",
        "offset": 0,
        "slot": "4",
        "type": "t_mapping(t_uint16,t_mapping(t_bytes_memory_ptr,t_mapping(t_uint64,t_bytes32)))"
      }
    ],
    "types": {
      "t_address": {
        "encoding": "inplace",
        "label": "address",
        "numberOfBytes": "20"
      },
      "t_bytes32": {
        "encoding": "inplace",
        "label": "bytes32",
        "numberOfBytes": "32"
      },
      "t_bytes_memory_ptr": {
        "encoding": "bytes",
        "label": "bytes",
        "numberOfBytes": "32"
      },
      "t_bytes_storage": {
        "encoding": "bytes",
        "label": "bytes",
        "numberOfBytes": "32"
      },
      "t_mapping(t_bytes_memory_ptr,t_mapping(t_uint64,t_bytes32))": {
        "encoding": "mapping",
        "key": "t_bytes_memory_ptr",
        "label": "mapping(bytes => mapping(uint64 => bytes32))",
        "numberOfBytes": "32",
        "value": "t_mapping(t_uint64,t_bytes32)"
      },
      "t_mapping(t_uint16,t_bytes_storage)": {
        "encoding": "mapping",
        "key": "t_uint16",
        "label": "mapping(uint16 => bytes)",
        "numberOfBytes": "32",
        "value": "t_bytes_storage"
      },
      "t_mapping(t_uint16,t_mapping(t_bytes_memory_ptr,t_mapping(t_uint64,t_bytes32)))": {
        "encoding": "mapping",
        "key": "t_uint16",
        "label": "mapping(uint16 => mapping(bytes => mapping(uint64 => bytes32)))",
        "numberOfBytes": "32",
        "value": "t_mapping(t_bytes_memory_ptr,t_mapping(t_uint64,t_bytes32))"
      },
      "t_mapping(t_uint16,t_mapping(t_uint16,t_uint256))": {
        "encoding": "mapping",
        "key": "t_uint16",
        "label": "mapping(uint16 => mapping(uint16 => uint256))",
        "numberOfBytes": "32",
        "value": "t_mapping(t_uint16,t_uint256)"
      },
      "t_mapping(t_uint16,t_uint256)": {
        "encoding": "mapping",
        "key": "t_uint16",
        "label": "mapping(uint16 => uint256)",
        "numberOfBytes": "32",
        "value": "t_uint256"
      },
      "t_mapping(t_uint64,t_bytes32)": {
        "encoding": "mapping",
        "key": "t_uint64",
        "label": "mapping(uint64 => bytes32)",
        "numberOfBytes": "32",
        "value": "t_bytes32"
      },
      "t_uint16": {
        "encoding": "inplace",
        "label": "uint16",
        "numberOfBytes": "2"
      },
      "t_uint256": {
        "encoding": "inplace",
        "label": "uint256",
        "numberOfBytes": "32"
      },
      "t_uint64": {
        "encoding": "inplace",
        "label": "uint64",
        "numberOfBytes": "8"
      }
    }
  }
}